{
    "_format": "hh-sol-artifact-1",
    "contractName": "WavePortal",
    "sourceName": "contracts/WavePortals.sol",
    "abi": [
        {
            "inputs": [],
            "stateMutability": "payable",
            "type": "constructor"
        },
        {
            "anonymous": false,
            "inputs": [
                {
                    "indexed": true,
                    "internalType": "address",
                    "name": "_from",
                    "type": "address"
                },
                {
                    "indexed": false,
                    "internalType": "string",
                    "name": "_message",
                    "type": "string"
                },
                {
                    "indexed": false,
                    "internalType": "uint256",
                    "name": "_timestamp",
                    "type": "uint256"
                }
            ],
            "name": "NewWave",
            "type": "event"
        },
        {
            "inputs": [],
            "name": "getAllWaves",
            "outputs": [
                {
                    "components": [
                        {
                            "internalType": "address",
                            "name": "addr",
                            "type": "address"
                        },
                        {
                            "internalType": "string",
                            "name": "message",
                            "type": "string"
                        },
                        {
                            "internalType": "uint256",
                            "name": "timestamp",
                            "type": "uint256"
                        }
                    ],
                    "internalType": "struct WavePortal.Wave[]",
                    "name": "",
                    "type": "tuple[]"
                }
            ],
            "stateMutability": "view",
            "type": "function"
        },
        {
            "inputs": [],
            "name": "getTotalWaves",
            "outputs": [
                {
                    "internalType": "uint256",
                    "name": "",
                    "type": "uint256"
                }
            ],
            "stateMutability": "view",
            "type": "function"
        },
        {
            "inputs": [
                {
                    "internalType": "address",
                    "name": "",
                    "type": "address"
                }
            ],
            "name": "userCooldown",
            "outputs": [
                {
                    "internalType": "uint256",
                    "name": "",
                    "type": "uint256"
                }
            ],
            "stateMutability": "view",
            "type": "function"
        },
        {
            "inputs": [
                {
                    "internalType": "string",
                    "name": "_message",
                    "type": "string"
                }
            ],
            "name": "wave",
            "outputs": [],
            "stateMutability": "nonpayable",
            "type": "function"
        }
    ],
    "bytecode": "0x6080604052655af3107a4000600355620000596040518060400160405280601a81526020017f436f6e747261637420697320757020616e642072756e6e696e670000000000008152506200008160201b620005fd1760201c565b60644442620000699190620001ce565b6200007591906200026b565b60008190555062000312565b62000121816040516024016200009891906200018e565b6040516020818303038152906040527f41304fac000000000000000000000000000000000000000000000000000000007bffffffffffffffffffffffffffffffffffffffffffffffffffffffff19166020820180517bffffffffffffffffffffffffffffffffffffffffffffffffffffffff83818316178352505050506200012460201b60201c565b50565b60008151905060006a636f6e736f6c652e6c6f679050602083016000808483855afa5050505050565b60006200015a82620001b2565b620001668185620001bd565b93506200017881856020860162000235565b620001838162000301565b840191505092915050565b60006020820190508181036000830152620001aa81846200014d565b905092915050565b600081519050919050565b600082825260208201905092915050565b6000620001db826200022b565b9150620001e8836200022b565b9250827fffffffffffffffffffffffffffffffffffffffffffffffffffffffffffffffff0382111562000220576200021f620002a3565b5b828201905092915050565b6000819050919050565b60005b838110156200025557808201518184015260208101905062000238565b8381111562000265576000848401525b50505050565b600062000278826200022b565b915062000285836200022b565b925082620002985762000297620002d2565b5b828206905092915050565b7f4e487b7100000000000000000000000000000000000000000000000000000000600052601160045260246000fd5b7f4e487b7100000000000000000000000000000000000000000000000000000000600052601260045260246000fd5b6000601f19601f8301169050919050565b61109680620003226000396000f3fe608060405234801561001057600080fd5b506004361061004c5760003560e01c8063449d46c0146100515780639a2cdc081461006d578063bd43a9081461008b578063e809290b146100a9575b600080fd5b61006b60048036038101906100669190610940565b6100d9565b005b61007561048a565b6040516100829190610d58565b60405180910390f35b610093610494565b6040516100a09190610c1d565b60405180910390f35b6100c360048036038101906100be9190610917565b6105e5565b6040516100d09190610d58565b60405180910390f35b42600460003373ffffffffffffffffffffffffffffffffffffffff1673ffffffffffffffffffffffffffffffffffffffff168152602001908152602001600020541061015a576040517f08c379a000000000000000000000000000000000000000000000000000000000815260040161015190610cf8565b60405180910390fd5b600180600082825461016c9190610e45565b92505081905550600260405180606001604052803373ffffffffffffffffffffffffffffffffffffffff16815260200183815260200142815250908060018154018082558091505060019003906000526020600020906003020160009091909190915060008201518160000160006101000a81548173ffffffffffffffffffffffffffffffffffffffff021916908373ffffffffffffffffffffffffffffffffffffffff16021790555060208201518160010190805190602001906102329291906107f7565b5060408201518160020155505061027e6040518060400160405280600281526020017f257300000000000000000000000000000000000000000000000000000000000081525082610696565b601e4261028b9190610e45565b600460003373ffffffffffffffffffffffffffffffffffffffff1673ffffffffffffffffffffffffffffffffffffffff168152602001908152602001600020819055503373ffffffffffffffffffffffffffffffffffffffff167f6728ef66814a55b797863bf8ffcd954b19cbca4ed4f0e6cf04c980705fd82c368242604051610316929190610cc8565b60405180910390a26064600054444261032f9190610e45565b6103399190610e45565b6103439190610f4b565b600081905550603260005411610487576103926040518060400160405280600c81526020017f25732068617320776f6e2021000000000000000000000000000000000000000081525033610732565b4760035411156103d7576040517f08c379a00000000000000000000000000000000000000000000000000000000081526004016103ce90610d18565b60405180910390fd5b60003373ffffffffffffffffffffffffffffffffffffffff166003546040516103ff90610c08565b60006040518083038185875af1925050503d806000811461043c576040519150601f19603f3d011682016040523d82523d6000602084013e610441565b606091505b5050905080610485576040517f08c379a000000000000000000000000000000000000000000000000000000000815260040161047c90610d38565b60405180910390fd5b505b50565b6000600154905090565b60606002805480602002602001604051908101604052809291908181526020016000905b828210156105dc57838290600052602060002090600302016040518060600160405290816000820160009054906101000a900473ffffffffffffffffffffffffffffffffffffffff1673ffffffffffffffffffffffffffffffffffffffff1673ffffffffffffffffffffffffffffffffffffffff16815260200160018201805461054190610f19565b80601f016020809104026020016040519081016040528092919081815260200182805461056d90610f19565b80156105ba5780601f1061058f576101008083540402835291602001916105ba565b820191906000526020600020905b81548152906001019060200180831161059d57829003601f168201915b50505050508152602001600282015481525050815260200190600101906104b8565b50505050905090565b60046020528060005260406000206000915090505481565b610693816040516024016106119190610c3f565b6040516020818303038152906040527f41304fac000000000000000000000000000000000000000000000000000000007bffffffffffffffffffffffffffffffffffffffffffffffffffffffff19166020820180517bffffffffffffffffffffffffffffffffffffffffffffffffffffffff83818316178352505050506107ce565b50565b61072e82826040516024016106ac929190610c91565b6040516020818303038152906040527f4b5c4277000000000000000000000000000000000000000000000000000000007bffffffffffffffffffffffffffffffffffffffffffffffffffffffff19166020820180517bffffffffffffffffffffffffffffffffffffffffffffffffffffffff83818316178352505050506107ce565b5050565b6107ca8282604051602401610748929190610c61565b6040516020818303038152906040527f319af333000000000000000000000000000000000000000000000000000000007bffffffffffffffffffffffffffffffffffffffffffffffffffffffff19166020820180517bffffffffffffffffffffffffffffffffffffffffffffffffffffffff83818316178352505050506107ce565b5050565b60008151905060006a636f6e736f6c652e6c6f679050602083016000808483855afa5050505050565b82805461080390610f19565b90600052602060002090601f016020900481019282610825576000855561086c565b82601f1061083e57805160ff191683800117855561086c565b8280016001018555821561086c579182015b8281111561086b578251825591602001919060010190610850565b5b509050610879919061087d565b5090565b5b8082111561089657600081600090555060010161087e565b5090565b60006108ad6108a884610da4565b610d73565b9050828152602081018484840111156108c557600080fd5b6108d0848285610ed7565b509392505050565b6000813590506108e781611049565b92915050565b600082601f8301126108fe57600080fd5b813561090e84826020860161089a565b91505092915050565b60006020828403121561092957600080fd5b6000610937848285016108d8565b91505092915050565b60006020828403121561095257600080fd5b600082013567ffffffffffffffff81111561096c57600080fd5b610978848285016108ed565b91505092915050565b600061098d8383610b9a565b905092915050565b61099e81610e9b565b82525050565b6109ad81610e9b565b82525050565b60006109be82610de4565b6109c88185610e07565b9350836020820285016109da85610dd4565b8060005b85811015610a1657848403895281516109f78582610981565b9450610a0283610dfa565b925060208a019950506001810190506109de565b50829750879550505050505092915050565b6000610a3382610def565b610a3d8185610e23565b9350610a4d818560208601610ee6565b610a5681611038565b840191505092915050565b6000610a6c82610def565b610a768185610e34565b9350610a86818560208601610ee6565b610a8f81611038565b840191505092915050565b6000610aa7601383610e34565b91507f506c6561736520646f206e6f74207370616d21000000000000000000000000006000830152602082019050919050565b6000610ae7602f83610e34565b91507f4e6f7420656e6f756768206d6f6e657920696e207468652062616c616e63652060008301527f746f20676976652061207072697a6500000000000000000000000000000000006020830152604082019050919050565b6000610b4d600083610e18565b9150600082019050919050565b6000610b67601883610e34565b91507f4661696c656420746f2073656e6420746865207072697a6500000000000000006000830152602082019050919050565b6000606083016000830151610bb26000860182610995565b5060208301518482036020860152610bca8282610a28565b9150506040830151610bdf6040860182610bea565b508091505092915050565b610bf381610ecd565b82525050565b610c0281610ecd565b82525050565b6000610c1382610b40565b9150819050919050565b60006020820190508181036000830152610c3781846109b3565b905092915050565b60006020820190508181036000830152610c598184610a61565b905092915050565b60006040820190508181036000830152610c7b8185610a61565b9050610c8a60208301846109a4565b9392505050565b60006040820190508181036000830152610cab8185610a61565b90508181036020830152610cbf8184610a61565b90509392505050565b60006040820190508181036000830152610ce28185610a61565b9050610cf16020830184610bf9565b9392505050565b60006020820190508181036000830152610d1181610a9a565b9050919050565b60006020820190508181036000830152610d3181610ada565b9050919050565b60006020820190508181036000830152610d5181610b5a565b9050919050565b6000602082019050610d6d6000830184610bf9565b92915050565b6000604051905081810181811067ffffffffffffffff82111715610d9a57610d99611009565b5b8060405250919050565b600067ffffffffffffffff821115610dbf57610dbe611009565b5b601f19601f8301169050602081019050919050565b6000819050602082019050919050565b600081519050919050565b600081519050919050565b6000602082019050919050565b600082825260208201905092915050565b600081905092915050565b600082825260208201905092915050565b600082825260208201905092915050565b6000610e5082610ecd565b9150610e5b83610ecd565b9250827fffffffffffffffffffffffffffffffffffffffffffffffffffffffffffffffff03821115610e9057610e8f610f7c565b5b828201905092915050565b6000610ea682610ead565b9050919050565b600073ffffffffffffffffffffffffffffffffffffffff82169050919050565b6000819050919050565b82818337600083830152505050565b60005b83811015610f04578082015181840152602081019050610ee9565b83811115610f13576000848401525b50505050565b60006002820490506001821680610f3157607f821691505b60208210811415610f4557610f44610fda565b5b50919050565b6000610f5682610ecd565b9150610f6183610ecd565b925082610f7157610f70610fab565b5b828206905092915050565b7f4e487b7100000000000000000000000000000000000000000000000000000000600052601160045260246000fd5b7f4e487b7100000000000000000000000000000000000000000000000000000000600052601260045260246000fd5b7f4e487b7100000000000000000000000000000000000000000000000000000000600052602260045260246000fd5b7f4e487b7100000000000000000000000000000000000000000000000000000000600052604160045260246000fd5b6000601f19601f8301169050919050565b61105281610e9b565b811461105d57600080fd5b5056fea2646970667358221220f73a2ff3d44e7deb0bd90f6610a13b0434025073c519b1c1679ef162006dedcc64736f6c63430008000033",
    "linkReferences": {},
    "deployedLinkReferences": {}
}