{
    "_format": "hh-sol-artifact-1",
    "contractName": "WavePortal",
    "sourceName": "contracts/WavePortals.sol",
    "abi": [
        {
            "inputs": [],
            "stateMutability": "nonpayable",
            "type": "constructor"
        },
        {
            "inputs": [],
            "name": "getTotalWaves",
            "outputs": [
                {
                    "internalType": "uint256",
                    "name": "",
                    "type": "uint256"
                }
            ],
            "stateMutability": "view",
            "type": "function"
        },
        {
            "inputs": [
                {
                    "internalType": "address",
                    "name": "_addr",
                    "type": "address"
                }
            ],
            "name": "getTotalWavesByAddress",
            "outputs": [
                {
                    "internalType": "uint256",
                    "name": "",
                    "type": "uint256"
                }
            ],
            "stateMutability": "view",
            "type": "function"
        },
        {
            "inputs": [],
            "name": "wave",
            "outputs": [],
            "stateMutability": "nonpayable",
            "type": "function"
        }
    ],
    "bytecode": "0x608060405234801561001057600080fd5b5061003c6040518060600160405280602981526020016109b76029913961004160201b6102271760201c565b6101c4565b6100dd816040516024016100559190610142565b6040516020818303038152906040527f41304fac000000000000000000000000000000000000000000000000000000007bffffffffffffffffffffffffffffffffffffffffffffffffffffffff19166020820180517bffffffffffffffffffffffffffffffffffffffffffffffffffffffff83818316178352505050506100e060201b60201c565b50565b60008151905060006a636f6e736f6c652e6c6f679050602083016000808483855afa5050505050565b600061011482610164565b61011e818561016f565b935061012e818560208601610180565b610137816101b3565b840191505092915050565b6000602082019050818103600083015261015c8184610109565b905092915050565b600081519050919050565b600082825260208201905092915050565b60005b8381101561019e578082015181840152602081019050610183565b838111156101ad576000848401525b50505050565b6000601f19601f8301169050919050565b6107e4806101d36000396000f3fe608060405234801561001057600080fd5b50600436106100415760003560e01c80631e0070d3146100465780636fe15b44146100765780639a2cdc0814610080575b600080fd5b610060600480360381019061005b91906104d5565b61009e565b60405161006d9190610615565b60405180910390f35b61007e610149565b005b6100886101f9565b6040516100959190610615565b60405180910390f35b60006101026040518060600160405280602281526020016107696022913983600160008673ffffffffffffffffffffffffffffffffffffffff1673ffffffffffffffffffffffffffffffffffffffff168152602001908152602001600020546102c0565b600160008373ffffffffffffffffffffffffffffffffffffffff1673ffffffffffffffffffffffffffffffffffffffff168152602001908152602001600020549050919050565b600160008082825461015b919061064c565b9250508190555060018060003373ffffffffffffffffffffffffffffffffffffffff1673ffffffffffffffffffffffffffffffffffffffff16815260200190815260200160002060008282546101b1919061064c565b925050819055506101f76040518060400160405280601181526020017f4f682120257320686173207761766564210000000000000000000000000000008152503361035f565b565b600061021f60405180606001604052806024815260200161078b602491396000546103fb565b600054905090565b6102bd8160405160240161023b9190610555565b6040516020818303038152906040527f41304fac000000000000000000000000000000000000000000000000000000007bffffffffffffffffffffffffffffffffffffffffffffffffffffffff19166020820180517bffffffffffffffffffffffffffffffffffffffffffffffffffffffff8381831617835250505050610497565b50565b61035a8383836040516024016102d8939291906105a7565b6040516020818303038152906040527f07c81217000000000000000000000000000000000000000000000000000000007bffffffffffffffffffffffffffffffffffffffffffffffffffffffff19166020820180517bffffffffffffffffffffffffffffffffffffffffffffffffffffffff8381831617835250505050610497565b505050565b6103f78282604051602401610375929190610577565b6040516020818303038152906040527f319af333000000000000000000000000000000000000000000000000000000007bffffffffffffffffffffffffffffffffffffffffffffffffffffffff19166020820180517bffffffffffffffffffffffffffffffffffffffffffffffffffffffff8381831617835250505050610497565b5050565b61049382826040516024016104119291906105e5565b6040516020818303038152906040527f9710a9d0000000000000000000000000000000000000000000000000000000007bffffffffffffffffffffffffffffffffffffffffffffffffffffffff19166020820180517bffffffffffffffffffffffffffffffffffffffffffffffffffffffff8381831617835250505050610497565b5050565b60008151905060006a636f6e736f6c652e6c6f679050602083016000808483855afa5050505050565b6000813590506104cf81610751565b92915050565b6000602082840312156104e757600080fd5b60006104f5848285016104c0565b91505092915050565b610507816106a2565b82525050565b600061051882610630565b610522818561063b565b93506105328185602086016106de565b61053b81610740565b840191505092915050565b61054f816106d4565b82525050565b6000602082019050818103600083015261056f818461050d565b905092915050565b60006040820190508181036000830152610591818561050d565b90506105a060208301846104fe565b9392505050565b600060608201905081810360008301526105c1818661050d565b90506105d060208301856104fe565b6105dd6040830184610546565b949350505050565b600060408201905081810360008301526105ff818561050d565b905061060e6020830184610546565b9392505050565b600060208201905061062a6000830184610546565b92915050565b600081519050919050565b600082825260208201905092915050565b6000610657826106d4565b9150610662836106d4565b9250827fffffffffffffffffffffffffffffffffffffffffffffffffffffffffffffffff0382111561069757610696610711565b5b828201905092915050565b60006106ad826106b4565b9050919050565b600073ffffffffffffffffffffffffffffffffffffffff82169050919050565b6000819050919050565b60005b838110156106fc5780820151818401526020810190506106e1565b8381111561070b576000848401525b50505050565b7f4e487b7100000000000000000000000000000000000000000000000000000000600052601160045260246000fd5b6000601f19601f8301169050919050565b61075a816106a2565b811461076557600080fd5b5056fe2573206861732077617665642025642074696d657320746f206d652c20776f7720215765206861766520256420746f74616c2077617665732120496d70726573736976652021a264697066735822122060eceeee09d8a792daaf58dceb4a75fa77a3cf353356df52f9e6cddc1d5dfad664736f6c6343000804003348657265277320612073637265656e73686f7420666f7220796f75206275696c647370616365203a44",
    "linkReferences": {},
    "deployedLinkReferences": {}
}